{
    "contractName": "HashaGold",
    "abi": [
        {
            "inputs": [
                {
                    "internalType": "uint256",
                    "name": "initialSupply",
                    "type": "uint256"
                }
            ],
            "stateMutability": "nonpayable",
            "type": "constructor"
        },
        {
            "anonymous": false,
            "inputs": [
                {
                    "indexed": true,
                    "internalType": "address",
                    "name": "owner",
                    "type": "address"
                },
                {
                    "indexed": true,
                    "internalType": "address",
                    "name": "spender",
                    "type": "address"
                },
                {
                    "indexed": false,
                    "internalType": "uint256",
                    "name": "value",
                    "type": "uint256"
                }
            ],
            "name": "Approval",
            "type": "event"
        },
        {
            "anonymous": false,
            "inputs": [
                {
                    "indexed": false,
                    "internalType": "address",
                    "name": "account",
                    "type": "address"
                }
            ],
            "name": "Paused",
            "type": "event"
        },
        {
            "anonymous": false,
            "inputs": [
                {
                    "indexed": true,
                    "internalType": "bytes32",
                    "name": "role",
                    "type": "bytes32"
                },
                {
                    "indexed": true,
                    "internalType": "bytes32",
                    "name": "previousAdminRole",
                    "type": "bytes32"
                },
                {
                    "indexed": true,
                    "internalType": "bytes32",
                    "name": "newAdminRole",
                    "type": "bytes32"
                }
            ],
            "name": "RoleAdminChanged",
            "type": "event"
        },
        {
            "anonymous": false,
            "inputs": [
                {
                    "indexed": true,
                    "internalType": "bytes32",
                    "name": "role",
                    "type": "bytes32"
                },
                {
                    "indexed": true,
                    "internalType": "address",
                    "name": "account",
                    "type": "address"
                },
                {
                    "indexed": true,
                    "internalType": "address",
                    "name": "sender",
                    "type": "address"
                }
            ],
            "name": "RoleGranted",
            "type": "event"
        },
        {
            "anonymous": false,
            "inputs": [
                {
                    "indexed": true,
                    "internalType": "bytes32",
                    "name": "role",
                    "type": "bytes32"
                },
                {
                    "indexed": true,
                    "internalType": "address",
                    "name": "account",
                    "type": "address"
                },
                {
                    "indexed": true,
                    "internalType": "address",
                    "name": "sender",
                    "type": "address"
                }
            ],
            "name": "RoleRevoked",
            "type": "event"
        },
        {
            "anonymous": false,
            "inputs": [
                {
                    "indexed": true,
                    "internalType": "address",
                    "name": "from",
                    "type": "address"
                },
                {
                    "indexed": true,
                    "internalType": "address",
                    "name": "to",
                    "type": "address"
                },
                {
                    "indexed": false,
                    "internalType": "uint256",
                    "name": "value",
                    "type": "uint256"
                }
            ],
            "name": "Transfer",
            "type": "event"
        },
        {
            "anonymous": false,
            "inputs": [
                {
                    "indexed": false,
                    "internalType": "address",
                    "name": "account",
                    "type": "address"
                }
            ],
            "name": "Unpaused",
            "type": "event"
        },
        {
            "stateMutability": "payable",
            "type": "fallback"
        },
        {
            "inputs": [],
            "name": "BURNER_ROLE",
            "outputs": [
                {
                    "internalType": "bytes32",
                    "name": "",
                    "type": "bytes32"
                }
            ],
            "stateMutability": "view",
            "type": "function"
        },
        {
            "inputs": [],
            "name": "DEFAULT_ADMIN_ROLE",
            "outputs": [
                {
                    "internalType": "bytes32",
                    "name": "",
                    "type": "bytes32"
                }
            ],
            "stateMutability": "view",
            "type": "function"
        },
        {
            "inputs": [],
            "name": "MINTER_ROLE",
            "outputs": [
                {
                    "internalType": "bytes32",
                    "name": "",
                    "type": "bytes32"
                }
            ],
            "stateMutability": "view",
            "type": "function"
        },
        {
            "inputs": [],
            "name": "PAUSER_ROLE",
            "outputs": [
                {
                    "internalType": "bytes32",
                    "name": "",
                    "type": "bytes32"
                }
            ],
            "stateMutability": "view",
            "type": "function"
        },
        {
            "inputs": [
                {
                    "internalType": "address",
                    "name": "owner",
                    "type": "address"
                },
                {
                    "internalType": "address",
                    "name": "spender",
                    "type": "address"
                }
            ],
            "name": "allowance",
            "outputs": [
                {
                    "internalType": "uint256",
                    "name": "",
                    "type": "uint256"
                }
            ],
            "stateMutability": "view",
            "type": "function"
        },
        {
            "inputs": [
                {
                    "internalType": "address",
                    "name": "spender",
                    "type": "address"
                },
                {
                    "internalType": "uint256",
                    "name": "amount",
                    "type": "uint256"
                }
            ],
            "name": "approve",
            "outputs": [
                {
                    "internalType": "bool",
                    "name": "",
                    "type": "bool"
                }
            ],
            "stateMutability": "nonpayable",
            "type": "function"
        },
        {
            "inputs": [
                {
                    "internalType": "address",
                    "name": "account",
                    "type": "address"
                }
            ],
            "name": "balanceOf",
            "outputs": [
                {
                    "internalType": "uint256",
                    "name": "",
                    "type": "uint256"
                }
            ],
            "stateMutability": "view",
            "type": "function"
        },
        {
            "inputs": [
                {
                    "internalType": "uint256",
                    "name": "value",
                    "type": "uint256"
                }
            ],
            "name": "burn",
            "outputs": [],
            "stateMutability": "nonpayable",
            "type": "function"
        },
        {
            "inputs": [
                {
                    "internalType": "address",
                    "name": "account",
                    "type": "address"
                },
                {
                    "internalType": "uint256",
                    "name": "amount",
                    "type": "uint256"
                }
            ],
            "name": "burnFrom",
            "outputs": [],
            "stateMutability": "nonpayable",
            "type": "function"
        },
        {
            "inputs": [],
            "name": "decimals",
            "outputs": [
                {
                    "internalType": "uint8",
                    "name": "",
                    "type": "uint8"
                }
            ],
            "stateMutability": "view",
            "type": "function"
        },
        {
            "inputs": [
                {
                    "internalType": "address",
                    "name": "spender",
                    "type": "address"
                },
                {
                    "internalType": "uint256",
                    "name": "subtractedValue",
                    "type": "uint256"
                }
            ],
            "name": "decreaseAllowance",
            "outputs": [
                {
                    "internalType": "bool",
                    "name": "",
                    "type": "bool"
                }
            ],
            "stateMutability": "nonpayable",
            "type": "function"
        },
        {
            "inputs": [
                {
                    "internalType": "bytes32",
                    "name": "role",
                    "type": "bytes32"
                }
            ],
            "name": "getRoleAdmin",
            "outputs": [
                {
                    "internalType": "bytes32",
                    "name": "",
                    "type": "bytes32"
                }
            ],
            "stateMutability": "view",
            "type": "function"
        },
        {
            "inputs": [
                {
                    "internalType": "bytes32",
                    "name": "role",
                    "type": "bytes32"
                },
                {
                    "internalType": "uint256",
                    "name": "index",
                    "type": "uint256"
                }
            ],
            "name": "getRoleMember",
            "outputs": [
                {
                    "internalType": "address",
                    "name": "",
                    "type": "address"
                }
            ],
            "stateMutability": "view",
            "type": "function"
        },
        {
            "inputs": [
                {
                    "internalType": "bytes32",
                    "name": "role",
                    "type": "bytes32"
                }
            ],
            "name": "getRoleMemberCount",
            "outputs": [
                {
                    "internalType": "uint256",
                    "name": "",
                    "type": "uint256"
                }
            ],
            "stateMutability": "view",
            "type": "function"
        },
        {
            "inputs": [
                {
                    "internalType": "bytes32",
                    "name": "role",
                    "type": "bytes32"
                },
                {
                    "internalType": "address",
                    "name": "account",
                    "type": "address"
                }
            ],
            "name": "grantRole",
            "outputs": [],
            "stateMutability": "nonpayable",
            "type": "function"
        },
        {
            "inputs": [
                {
                    "internalType": "bytes32",
                    "name": "role",
                    "type": "bytes32"
                },
                {
                    "internalType": "address",
                    "name": "account",
                    "type": "address"
                }
            ],
            "name": "hasRole",
            "outputs": [
                {
                    "internalType": "bool",
                    "name": "",
                    "type": "bool"
                }
            ],
            "stateMutability": "view",
            "type": "function"
        },
        {
            "inputs": [
                {
                    "internalType": "address",
                    "name": "spender",
                    "type": "address"
                },
                {
                    "internalType": "uint256",
                    "name": "addedValue",
                    "type": "uint256"
                }
            ],
            "name": "increaseAllowance",
            "outputs": [
                {
                    "internalType": "bool",
                    "name": "",
                    "type": "bool"
                }
            ],
            "stateMutability": "nonpayable",
            "type": "function"
        },
        {
            "inputs": [
                {
                    "internalType": "address",
                    "name": "to",
                    "type": "address"
                },
                {
                    "internalType": "uint256",
                    "name": "amount",
                    "type": "uint256"
                }
            ],
            "name": "mint",
            "outputs": [],
            "stateMutability": "nonpayable",
            "type": "function"
        },
        {
            "inputs": [],
            "name": "name",
            "outputs": [
                {
                    "internalType": "string",
                    "name": "",
                    "type": "string"
                }
            ],
            "stateMutability": "view",
            "type": "function"
        },
        {
            "inputs": [],
            "name": "pause",
            "outputs": [],
            "stateMutability": "nonpayable",
            "type": "function"
        },
        {
            "inputs": [],
            "name": "paused",
            "outputs": [
                {
                    "internalType": "bool",
                    "name": "",
                    "type": "bool"
                }
            ],
            "stateMutability": "view",
            "type": "function"
        },
        {
            "inputs": [
                {
                    "internalType": "bytes32",
                    "name": "role",
                    "type": "bytes32"
                },
                {
                    "internalType": "address",
                    "name": "account",
                    "type": "address"
                }
            ],
            "name": "renounceRole",
            "outputs": [],
            "stateMutability": "nonpayable",
            "type": "function"
        },
        {
            "inputs": [
                {
                    "internalType": "bytes32",
                    "name": "role",
                    "type": "bytes32"
                },
                {
                    "internalType": "address",
                    "name": "account",
                    "type": "address"
                }
            ],
            "name": "revokeRole",
            "outputs": [],
            "stateMutability": "nonpayable",
            "type": "function"
        },
        {
            "inputs": [
                {
                    "internalType": "bytes4",
                    "name": "interfaceId",
                    "type": "bytes4"
                }
            ],
            "name": "supportsInterface",
            "outputs": [
                {
                    "internalType": "bool",
                    "name": "",
                    "type": "bool"
                }
            ],
            "stateMutability": "view",
            "type": "function"
        },
        {
            "inputs": [],
            "name": "symbol",
            "outputs": [
                {
                    "internalType": "string",
                    "name": "",
                    "type": "string"
                }
            ],
            "stateMutability": "view",
            "type": "function"
        },
        {
            "inputs": [],
            "name": "totalSupply",
            "outputs": [
                {
                    "internalType": "uint256",
                    "name": "",
                    "type": "uint256"
                }
            ],
            "stateMutability": "view",
            "type": "function"
        },
        {
            "inputs": [
                {
                    "internalType": "address",
                    "name": "to",
                    "type": "address"
                },
                {
                    "internalType": "uint256",
                    "name": "amount",
                    "type": "uint256"
                }
            ],
            "name": "transfer",
            "outputs": [
                {
                    "internalType": "bool",
                    "name": "",
                    "type": "bool"
                }
            ],
            "stateMutability": "nonpayable",
            "type": "function"
        },
        {
            "inputs": [
                {
                    "internalType": "address",
                    "name": "from",
                    "type": "address"
                },
                {
                    "internalType": "address",
                    "name": "to",
                    "type": "address"
                },
                {
                    "internalType": "uint256",
                    "name": "amount",
                    "type": "uint256"
                }
            ],
            "name": "transferFrom",
            "outputs": [
                {
                    "internalType": "bool",
                    "name": "",
                    "type": "bool"
                }
            ],
            "stateMutability": "nonpayable",
            "type": "function"
        },
        {
            "inputs": [],
            "name": "unpause",
            "outputs": [],
            "stateMutability": "nonpayable",
            "type": "function"
        }
    ],
    "bytecode": "60806040523480156200001157600080fd5b506040516200243838038062002438833981016040819052620000349162000768565b604080518082018252600a81526912185cda184811dbdb1960b21b6020808301918252835180850190945260048452634853484760e01b908401528151919291839183916200008691600591620006c2565b5080516200009c906006906020840190620006c2565b50506007805460ff1916905550620000b660003362000150565b620000e27f9f2df0fed2c77648de5860a4cc508cd0818c85b8b8a1ab4ceeef8d981c8956a63362000150565b6200010e7f65d7a28e3265b37a6474929f336521b332c1681b933f6cb9f3376673440d862a3362000150565b506200011d9050338262000160565b620001497f3c11d16cbaffd01df69ce1c404f6340ee057498f5f00246190ea54220576a8483362000257565b5062000939565b6200015c828262000286565b5050565b6001600160a01b038216620001bc5760405162461bcd60e51b815260206004820152601f60248201527f45524332303a206d696e7420746f20746865207a65726f20616464726573730060448201526064015b60405180910390fd5b620001ca60008383620002c4565b8060046000828254620001de919062000798565b90915550506001600160a01b038216600090815260026020526040812080548392906200020d90849062000798565b90915550506040518181526001600160a01b038316906000907fddf252ad1be2c89b69c2b068fc378daa952ba7f163c4a11628f55a4df523b3ef9060200160405180910390a35050565b600082815260208190526040902060010154620002758133620002dc565b62000281838362000286565b505050565b6200029d82826200037760201b62000b341760201c565b60008281526001602090815260409091206200028191839062000bb862000417821b17901c565b620002818383836200043760201b62000bcd1760201c565b6000828152602081815260408083206001600160a01b038516845290915290205460ff166200015c5762000326816001600160a01b03166014620004b760201b62000c331760201c565b6200033c83602062000c33620004b7821b17811c565b6040516020016200034f929190620007e6565b60408051601f198184030181529082905262461bcd60e51b8252620001b3916004016200085f565b6000828152602081815260408083206001600160a01b038516845290915290205460ff166200015c576000828152602081815260408083206001600160a01b03851684529091529020805460ff19166001179055620003d33390565b6001600160a01b0316816001600160a01b0316837f2f8788117e7eff1d82e926ec794901d17c78024a50270940304540a733656f0d60405160405180910390a45050565b60006200042e836001600160a01b03841662000670565b90505b92915050565b6200044f8383836200028160201b620007061760201c565b60075460ff1615620002815760405162461bcd60e51b815260206004820152602a60248201527f45524332305061757361626c653a20746f6b656e207472616e736665722077686044820152691a5b19481c185d5cd95960b21b6064820152608401620001b3565b60606000620004c883600262000894565b620004d590600262000798565b6001600160401b03811115620004ef57620004ef620008b6565b6040519080825280601f01601f1916602001820160405280156200051a576020820181803683370190505b509050600360fc1b81600081518110620005385762000538620008cc565b60200101906001600160f81b031916908160001a905350600f60fb1b816001815181106200056a576200056a620008cc565b60200101906001600160f81b031916908160001a90535060006200059084600262000894565b6200059d90600162000798565b90505b60018111156200061f576f181899199a1a9b1b9c1cb0b131b232b360811b85600f1660108110620005d557620005d5620008cc565b1a60f81b828281518110620005ee57620005ee620008cc565b60200101906001600160f81b031916908160001a90535060049490941c936200061781620008e2565b9050620005a0565b5083156200042e5760405162461bcd60e51b815260206004820181905260248201527f537472696e67733a20686578206c656e67746820696e73756666696369656e746044820152606401620001b3565b6000818152600183016020526040812054620006b95750815460018181018455600084815260208082209093018490558454848252828601909352604090209190915562000431565b50600062000431565b828054620006d090620008fc565b90600052602060002090601f016020900481019282620006f457600085556200073f565b82601f106200070f57805160ff19168380011785556200073f565b828001600101855582156200073f579182015b828111156200073f57825182559160200191906001019062000722565b506200074d92915062000751565b5090565b5b808211156200074d576000815560010162000752565b6000602082840312156200077b57600080fd5b5051919050565b634e487b7160e01b600052601160045260246000fd5b60008219821115620007ae57620007ae62000782565b500190565b60005b83811015620007d0578181015183820152602001620007b6565b83811115620007e0576000848401525b50505050565b7f416363657373436f6e74726f6c3a206163636f756e742000000000000000000081526000835162000820816017850160208801620007b3565b7001034b99036b4b9b9b4b733903937b6329607d1b601791840191820152835162000853816028840160208801620007b3565b01602801949350505050565b602081526000825180602084015262000880816040850160208701620007b3565b601f01601f19169190910160400192915050565b6000816000190483118215151615620008b157620008b162000782565b500290565b634e487b7160e01b600052604160045260246000fd5b634e487b7160e01b600052603260045260246000fd5b600081620008f457620008f462000782565b506000190190565b600181811c908216806200091157607f821691505b602082108114156200093357634e487b7160e01b600052602260045260246000fd5b50919050565b611aef80620009496000396000f3fe6080604052600436106101c25760003560e01c80635c975abb116100f7578063a217fddf11610095578063d539139311610064578063d539139314610519578063d547741f1461054d578063dd62ed3e1461056d578063e63ab1e9146105b357600080fd5b8063a217fddf146104a4578063a457c2d7146104b9578063a9059cbb146104d9578063ca15c873146104f957600080fd5b80638456cb59116100d15780638456cb59146104225780639010d07c1461043757806391d148541461046f57806395d89b411461048f57600080fd5b80635c975abb146103b457806370a08231146103cc57806379cc67901461040257600080fd5b80632f2ff15d11610164578063395093511161013e578063395093511461033f5780633f4ba83a1461035f57806340c10f191461037457806342966c681461039457600080fd5b80632f2ff15d146102e1578063313ce5671461030357806336568abe1461031f57600080fd5b806318160ddd116101a057806318160ddd1461023e57806323b872dd1461025d578063248a9ca31461027d578063282c51f3146102ad57600080fd5b806301ffc9a7146101c757806306fdde03146101fc578063095ea7b31461021e575b600080fd5b3480156101d357600080fd5b506101e76101e2366004611795565b6105e7565b60405190151581526020015b60405180910390f35b34801561020857600080fd5b50610211610612565b6040516101f391906117eb565b34801561022a57600080fd5b506101e761023936600461183a565b6106a4565b34801561024a57600080fd5b506004545b6040519081526020016101f3565b34801561026957600080fd5b506101e7610278366004611864565b6106bc565b34801561028957600080fd5b5061024f6102983660046118a0565b60009081526020819052604090206001015490565b3480156102b957600080fd5b5061024f7f3c11d16cbaffd01df69ce1c404f6340ee057498f5f00246190ea54220576a84881565b3480156102ed57600080fd5b506103016102fc3660046118b9565b6106e0565b005b34801561030f57600080fd5b50604051601281526020016101f3565b34801561032b57600080fd5b5061030161033a3660046118b9565b61070b565b34801561034b57600080fd5b506101e761035a36600461183a565b61078e565b34801561036b57600080fd5b506103016107cd565b34801561038057600080fd5b5061030161038f36600461183a565b610873565b3480156103a057600080fd5b506103016103af3660046118a0565b610912565b3480156103c057600080fd5b5060075460ff166101e7565b3480156103d857600080fd5b5061024f6103e73660046118e5565b6001600160a01b031660009081526002602052604090205490565b34801561040e57600080fd5b5061030161041d36600461183a565b610947565b34801561042e57600080fd5b5061030161095c565b34801561044357600080fd5b50610457610452366004611900565b610a00565b6040516001600160a01b0390911681526020016101f3565b34801561047b57600080fd5b506101e761048a3660046118b9565b610a1f565b34801561049b57600080fd5b50610211610a48565b3480156104b057600080fd5b5061024f600081565b3480156104c557600080fd5b506101e76104d436600461183a565b610a57565b3480156104e557600080fd5b506101e76104f436600461183a565b610ae9565b34801561050557600080fd5b5061024f6105143660046118a0565b610af7565b34801561052557600080fd5b5061024f7f9f2df0fed2c77648de5860a4cc508cd0818c85b8b8a1ab4ceeef8d981c8956a681565b34801561055957600080fd5b506103016105683660046118b9565b610b0e565b34801561057957600080fd5b5061024f610588366004611922565b6001600160a01b03918216600090815260036020908152604080832093909416825291909152205490565b3480156105bf57600080fd5b5061024f7f65d7a28e3265b37a6474929f336521b332c1681b933f6cb9f3376673440d862a81565b60006001600160e01b03198216635a05180f60e01b148061060c575061060c82610dcf565b92915050565b6060600580546106219061194c565b80601f016020809104026020016040519081016040528092919081815260200182805461064d9061194c565b801561069a5780601f1061066f5761010080835404028352916020019161069a565b820191906000526020600020905b81548152906001019060200180831161067d57829003601f168201915b5050505050905090565b6000336106b2818585610e04565b5060019392505050565b6000336106ca858285610f28565b6106d5858585610fba565b506001949350505050565b6000828152602081905260409020600101546106fc8133611193565b61070683836111f7565b505050565b6001600160a01b03811633146107805760405162461bcd60e51b815260206004820152602f60248201527f416363657373436f6e74726f6c3a2063616e206f6e6c792072656e6f756e636560448201526e103937b632b9903337b91039b2b63360891b60648201526084015b60405180910390fd5b61078a8282611219565b5050565b3360008181526003602090815260408083206001600160a01b03871684529091528120549091906106b290829086906107c890879061199d565b610e04565b6107f77f65d7a28e3265b37a6474929f336521b332c1681b933f6cb9f3376673440d862a33610a1f565b6108695760405162461bcd60e51b815260206004820152603960248201527f45524332305072657365744d696e7465725061757365723a206d75737420686160448201527f76652070617573657220726f6c6520746f20756e7061757365000000000000006064820152608401610777565b61087161123b565b565b61089d7f9f2df0fed2c77648de5860a4cc508cd0818c85b8b8a1ab4ceeef8d981c8956a633610a1f565b6109085760405162461bcd60e51b815260206004820152603660248201527f45524332305072657365744d696e7465725061757365723a206d7573742068616044820152751d99481b5a5b9d195c881c9bdb19481d1bc81b5a5b9d60521b6064820152608401610777565b61078a82826112ce565b7f3c11d16cbaffd01df69ce1c404f6340ee057498f5f00246190ea54220576a84861093d8133611193565b61078a33836113b9565b610952823383610f28565b61078a82826113b9565b6109867f65d7a28e3265b37a6474929f336521b332c1681b933f6cb9f3376673440d862a33610a1f565b6109f85760405162461bcd60e51b815260206004820152603760248201527f45524332305072657365744d696e7465725061757365723a206d75737420686160448201527f76652070617573657220726f6c6520746f2070617573650000000000000000006064820152608401610777565b610871611513565b6000828152600160205260408120610a18908361158e565b9392505050565b6000918252602082815260408084206001600160a01b0393909316845291905290205460ff1690565b6060600680546106219061194c565b3360008181526003602090815260408083206001600160a01b038716845290915281205490919083811015610adc5760405162461bcd60e51b815260206004820152602560248201527f45524332303a2064656372656173656420616c6c6f77616e63652062656c6f77604482015264207a65726f60d81b6064820152608401610777565b6106d58286868403610e04565b6000336106b2818585610fba565b600081815260016020526040812061060c9061159a565b600082815260208190526040902060010154610b2a8133611193565b6107068383611219565b610b3e8282610a1f565b61078a576000828152602081815260408083206001600160a01b03851684529091529020805460ff19166001179055610b743390565b6001600160a01b0316816001600160a01b0316837f2f8788117e7eff1d82e926ec794901d17c78024a50270940304540a733656f0d60405160405180910390a45050565b6000610a18836001600160a01b0384166115a4565b60075460ff16156107065760405162461bcd60e51b815260206004820152602a60248201527f45524332305061757361626c653a20746f6b656e207472616e736665722077686044820152691a5b19481c185d5cd95960b21b6064820152608401610777565b60606000610c428360026119b5565b610c4d90600261199d565b67ffffffffffffffff811115610c6557610c656119d4565b6040519080825280601f01601f191660200182016040528015610c8f576020820181803683370190505b509050600360fc1b81600081518110610caa57610caa6119ea565b60200101906001600160f81b031916908160001a905350600f60fb1b81600181518110610cd957610cd96119ea565b60200101906001600160f81b031916908160001a9053506000610cfd8460026119b5565b610d0890600161199d565b90505b6001811115610d80576f181899199a1a9b1b9c1cb0b131b232b360811b85600f1660108110610d3c57610d3c6119ea565b1a60f81b828281518110610d5257610d526119ea565b60200101906001600160f81b031916908160001a90535060049490941c93610d7981611a00565b9050610d0b565b508315610a185760405162461bcd60e51b815260206004820181905260248201527f537472696e67733a20686578206c656e67746820696e73756666696369656e746044820152606401610777565b60006001600160e01b03198216637965db0b60e01b148061060c57506301ffc9a760e01b6001600160e01b031983161461060c565b6001600160a01b038316610e665760405162461bcd60e51b8152602060048201526024808201527f45524332303a20617070726f76652066726f6d20746865207a65726f206164646044820152637265737360e01b6064820152608401610777565b6001600160a01b038216610ec75760405162461bcd60e51b815260206004820152602260248201527f45524332303a20617070726f766520746f20746865207a65726f206164647265604482015261737360f01b6064820152608401610777565b6001600160a01b0383811660008181526003602090815260408083209487168084529482529182902085905590518481527f8c5be1e5ebec7d5bd14f71427d1e84f3dd0314c0f7b2291e5b200ac8c7c3b925910160405180910390a3505050565b6001600160a01b038381166000908152600360209081526040808320938616835292905220546000198114610fb45781811015610fa75760405162461bcd60e51b815260206004820152601d60248201527f45524332303a20696e73756666696369656e7420616c6c6f77616e63650000006044820152606401610777565b610fb48484848403610e04565b50505050565b6001600160a01b03831661101e5760405162461bcd60e51b815260206004820152602560248201527f45524332303a207472616e736665722066726f6d20746865207a65726f206164604482015264647265737360d81b6064820152608401610777565b6001600160a01b0382166110805760405162461bcd60e51b815260206004820152602360248201527f45524332303a207472616e7366657220746f20746865207a65726f206164647260448201526265737360e81b6064820152608401610777565b61108b8383836115f3565b6001600160a01b038316600090815260026020526040902054818110156111035760405162461bcd60e51b815260206004820152602660248201527f45524332303a207472616e7366657220616d6f756e7420657863656564732062604482015265616c616e636560d01b6064820152608401610777565b6001600160a01b0380851660009081526002602052604080822085850390559185168152908120805484929061113a90849061199d565b92505081905550826001600160a01b0316846001600160a01b03167fddf252ad1be2c89b69c2b068fc378daa952ba7f163c4a11628f55a4df523b3ef8460405161118691815260200190565b60405180910390a3610fb4565b61119d8282610a1f565b61078a576111b5816001600160a01b03166014610c33565b6111c0836020610c33565b6040516020016111d1929190611a17565b60408051601f198184030181529082905262461bcd60e51b8252610777916004016117eb565b6112018282610b34565b60008281526001602052604090206107069082610bb8565b61122382826115fe565b60008281526001602052604090206107069082611663565b60075460ff166112845760405162461bcd60e51b815260206004820152601460248201527314185d5cd8589b194e881b9bdd081c185d5cd95960621b6044820152606401610777565b6007805460ff191690557f5db9ee0a495bf2e6ff9c91a7834c1ba4fdd244a5e8aa4e537bd38aeae4b073aa335b6040516001600160a01b03909116815260200160405180910390a1565b6001600160a01b0382166113245760405162461bcd60e51b815260206004820152601f60248201527f45524332303a206d696e7420746f20746865207a65726f2061646472657373006044820152606401610777565b611330600083836115f3565b8060046000828254611342919061199d565b90915550506001600160a01b0382166000908152600260205260408120805483929061136f90849061199d565b90915550506040518181526001600160a01b038316906000907fddf252ad1be2c89b69c2b068fc378daa952ba7f163c4a11628f55a4df523b3ef9060200160405180910390a35050565b6001600160a01b0382166114195760405162461bcd60e51b815260206004820152602160248201527f45524332303a206275726e2066726f6d20746865207a65726f206164647265736044820152607360f81b6064820152608401610777565b611425826000836115f3565b6001600160a01b038216600090815260026020526040902054818110156114995760405162461bcd60e51b815260206004820152602260248201527f45524332303a206275726e20616d6f756e7420657863656564732062616c616e604482015261636560f01b6064820152608401610777565b6001600160a01b03831660009081526002602052604081208383039055600480548492906114c8908490611a8c565b90915550506040518281526000906001600160a01b038516907fddf252ad1be2c89b69c2b068fc378daa952ba7f163c4a11628f55a4df523b3ef9060200160405180910390a3505050565b60075460ff16156115595760405162461bcd60e51b815260206004820152601060248201526f14185d5cd8589b194e881c185d5cd95960821b6044820152606401610777565b6007805460ff191660011790557f62e78cea01bee320cd4e420270b5ea74000d11b0c9f74754ebdbfc544b05a2586112b13390565b6000610a188383611678565b600061060c825490565b60008181526001830160205260408120546115eb5750815460018181018455600084815260208082209093018490558454848252828601909352604090209190915561060c565b50600061060c565b610706838383610bcd565b6116088282610a1f565b1561078a576000828152602081815260408083206001600160a01b0385168085529252808320805460ff1916905551339285917ff6391f5c32d9c69d2a47ea670b442974b53935d1edc7fd64eb21e047a839171b9190a45050565b6000610a18836001600160a01b0384166116a2565b600082600001828154811061168f5761168f6119ea565b9060005260206000200154905092915050565b6000818152600183016020526040812054801561178b5760006116c6600183611a8c565b85549091506000906116da90600190611a8c565b905081811461173f5760008660000182815481106116fa576116fa6119ea565b906000526020600020015490508087600001848154811061171d5761171d6119ea565b6000918252602080832090910192909255918252600188019052604090208390555b855486908061175057611750611aa3565b60019003818190600052602060002001600090559055856001016000868152602001908152602001600020600090556001935050505061060c565b600091505061060c565b6000602082840312156117a757600080fd5b81356001600160e01b031981168114610a1857600080fd5b60005b838110156117da5781810151838201526020016117c2565b83811115610fb45750506000910152565b602081526000825180602084015261180a8160408501602087016117bf565b601f01601f19169190910160400192915050565b80356001600160a01b038116811461183557600080fd5b919050565b6000806040838503121561184d57600080fd5b6118568361181e565b946020939093013593505050565b60008060006060848603121561187957600080fd5b6118828461181e565b92506118906020850161181e565b9150604084013590509250925092565b6000602082840312156118b257600080fd5b5035919050565b600080604083850312156118cc57600080fd5b823591506118dc6020840161181e565b90509250929050565b6000602082840312156118f757600080fd5b610a188261181e565b6000806040838503121561191357600080fd5b50508035926020909101359150565b6000806040838503121561193557600080fd5b61193e8361181e565b91506118dc6020840161181e565b600181811c9082168061196057607f821691505b6020821081141561198157634e487b7160e01b600052602260045260246000fd5b50919050565b634e487b7160e01b600052601160045260246000fd5b600082198211156119b0576119b0611987565b500190565b60008160001904831182151516156119cf576119cf611987565b500290565b634e487b7160e01b600052604160045260246000fd5b634e487b7160e01b600052603260045260246000fd5b600081611a0f57611a0f611987565b506000190190565b7f416363657373436f6e74726f6c3a206163636f756e7420000000000000000000815260008351611a4f8160178501602088016117bf565b7001034b99036b4b9b9b4b733903937b6329607d1b6017918401918201528351611a808160288401602088016117bf565b01602801949350505050565b600082821015611a9e57611a9e611987565b500390565b634e487b7160e01b600052603160045260246000fdfea26469706673582212203f08c7a7442b9662a584afa7eb7ada81763771fcf0c92a4d695667b6d6a73ee764736f6c634300080c0033",
    "sourcePath": "c:/Users/Typhon/BuildQuest Hasha TD/contracts/Hasha_Gold.sol",
    "compiler": {
        "name": "solc",
        "version": "0.8.12+commit.f00d7308"
    },
    "functionHashes": {
        "BURNER_ROLE()": "282c51f3",
        "DEFAULT_ADMIN_ROLE()": "a217fddf",
        "MINTER_ROLE()": "d5391393",
        "PAUSER_ROLE()": "e63ab1e9",
        "allowance(address,address)": "dd62ed3e",
        "approve(address,uint256)": "095ea7b3",
        "balanceOf(address)": "70a08231",
        "burn(uint256)": "42966c68",
        "burnFrom(address,uint256)": "79cc6790",
        "decimals()": "313ce567",
        "decreaseAllowance(address,uint256)": "a457c2d7",
        "getRoleAdmin(bytes32)": "248a9ca3",
        "getRoleMember(bytes32,uint256)": "9010d07c",
        "getRoleMemberCount(bytes32)": "ca15c873",
        "grantRole(bytes32,address)": "2f2ff15d",
        "hasRole(bytes32,address)": "91d14854",
        "increaseAllowance(address,uint256)": "39509351",
        "mint(address,uint256)": "40c10f19",
        "name()": "06fdde03",
        "pause()": "8456cb59",
        "paused()": "5c975abb",
        "renounceRole(bytes32,address)": "36568abe",
        "revokeRole(bytes32,address)": "d547741f",
        "supportsInterface(bytes4)": "01ffc9a7",
        "symbol()": "95d89b41",
        "totalSupply()": "18160ddd",
        "transfer(address,uint256)": "a9059cbb",
        "transferFrom(address,address,uint256)": "23b872dd",
        "unpause()": "3f4ba83a"
    },
    "gasEstimates": {
        "creation": {
            "codeDepositCost": "1379000",
            "executionCost": "infinite",
            "totalCost": "infinite"
        },
        "external": {
            "": "193",
            "BURNER_ROLE()": "307",
            "DEFAULT_ADMIN_ROLE()": "240",
            "MINTER_ROLE()": "239",
            "PAUSER_ROLE()": "305",
            "allowance(address,address)": "infinite",
            "approve(address,uint256)": "24681",
            "balanceOf(address)": "2605",
            "burn(uint256)": "infinite",
            "burnFrom(address,uint256)": "infinite",
            "decimals()": "245",
            "decreaseAllowance(address,uint256)": "26956",
            "getRoleAdmin(bytes32)": "2537",
            "getRoleMember(bytes32,uint256)": "infinite",
            "getRoleMemberCount(bytes32)": "infinite",
            "grantRole(bytes32,address)": "infinite",
            "hasRole(bytes32,address)": "2740",
            "increaseAllowance(address,uint256)": "26979",
            "mint(address,uint256)": "infinite",
            "name()": "infinite",
            "pause()": "29969",
            "paused()": "2339",
            "renounceRole(bytes32,address)": "infinite",
            "revokeRole(bytes32,address)": "infinite",
            "supportsInterface(bytes4)": "infinite",
            "symbol()": "infinite",
            "totalSupply()": "2327",
            "transfer(address,uint256)": "infinite",
            "transferFrom(address,address,uint256)": "infinite",
            "unpause()": "29968"
        }
    }
}