{
    "contractName": "Hasha_Heroe",
    "abi": [
        {
            "inputs": [
                {
                    "internalType": "address",
                    "name": "marketplaceAddress",
                    "type": "address"
                }
            ],
            "stateMutability": "nonpayable",
            "type": "constructor"
        },
        {
            "anonymous": false,
            "inputs": [
                {
                    "indexed": true,
                    "internalType": "address",
                    "name": "owner",
                    "type": "address"
                },
                {
                    "indexed": true,
                    "internalType": "address",
                    "name": "approved",
                    "type": "address"
                },
                {
                    "indexed": true,
                    "internalType": "uint256",
                    "name": "tokenId",
                    "type": "uint256"
                }
            ],
            "name": "Approval",
            "type": "event"
        },
        {
            "anonymous": false,
            "inputs": [
                {
                    "indexed": true,
                    "internalType": "address",
                    "name": "owner",
                    "type": "address"
                },
                {
                    "indexed": true,
                    "internalType": "address",
                    "name": "operator",
                    "type": "address"
                },
                {
                    "indexed": false,
                    "internalType": "bool",
                    "name": "approved",
                    "type": "bool"
                }
            ],
            "name": "ApprovalForAll",
            "type": "event"
        },
        {
            "anonymous": false,
            "inputs": [
                {
                    "indexed": true,
                    "internalType": "address",
                    "name": "from",
                    "type": "address"
                },
                {
                    "indexed": true,
                    "internalType": "address",
                    "name": "to",
                    "type": "address"
                },
                {
                    "indexed": true,
                    "internalType": "uint256",
                    "name": "tokenId",
                    "type": "uint256"
                }
            ],
            "name": "Transfer",
            "type": "event"
        },
        {
            "inputs": [
                {
                    "internalType": "address",
                    "name": "to",
                    "type": "address"
                },
                {
                    "internalType": "uint256",
                    "name": "tokenId",
                    "type": "uint256"
                }
            ],
            "name": "approve",
            "outputs": [],
            "stateMutability": "nonpayable",
            "type": "function"
        },
        {
            "inputs": [
                {
                    "internalType": "address",
                    "name": "owner",
                    "type": "address"
                }
            ],
            "name": "balanceOf",
            "outputs": [
                {
                    "internalType": "uint256",
                    "name": "",
                    "type": "uint256"
                }
            ],
            "stateMutability": "view",
            "type": "function"
        },
        {
            "inputs": [
                {
                    "internalType": "string",
                    "name": "tokenURI",
                    "type": "string"
                }
            ],
            "name": "createToken",
            "outputs": [
                {
                    "internalType": "uint256",
                    "name": "",
                    "type": "uint256"
                }
            ],
            "stateMutability": "nonpayable",
            "type": "function"
        },
        {
            "inputs": [
                {
                    "internalType": "uint256",
                    "name": "tokenId",
                    "type": "uint256"
                }
            ],
            "name": "getApproved",
            "outputs": [
                {
                    "internalType": "address",
                    "name": "",
                    "type": "address"
                }
            ],
            "stateMutability": "view",
            "type": "function"
        },
        {
            "inputs": [
                {
                    "internalType": "uint256",
                    "name": "_tokenId",
                    "type": "uint256"
                }
            ],
            "name": "getHeroeExists",
            "outputs": [
                {
                    "internalType": "bool",
                    "name": "",
                    "type": "bool"
                }
            ],
            "stateMutability": "view",
            "type": "function"
        },
        {
            "inputs": [
                {
                    "internalType": "uint256",
                    "name": "_tokenId",
                    "type": "uint256"
                }
            ],
            "name": "getHeroeMetaData",
            "outputs": [
                {
                    "internalType": "string",
                    "name": "",
                    "type": "string"
                }
            ],
            "stateMutability": "view",
            "type": "function"
        },
        {
            "inputs": [
                {
                    "internalType": "uint256",
                    "name": "_tokenId",
                    "type": "uint256"
                }
            ],
            "name": "getHeroeOwner",
            "outputs": [
                {
                    "internalType": "address",
                    "name": "",
                    "type": "address"
                }
            ],
            "stateMutability": "view",
            "type": "function"
        },
        {
            "inputs": [
                {
                    "internalType": "address",
                    "name": "_owner",
                    "type": "address"
                }
            ],
            "name": "getTotalNumberOfHeroesOwnedByAnAddress",
            "outputs": [
                {
                    "internalType": "uint256",
                    "name": "",
                    "type": "uint256"
                }
            ],
            "stateMutability": "view",
            "type": "function"
        },
        {
            "inputs": [
                {
                    "internalType": "address",
                    "name": "owner",
                    "type": "address"
                },
                {
                    "internalType": "address",
                    "name": "operator",
                    "type": "address"
                }
            ],
            "name": "isApprovedForAll",
            "outputs": [
                {
                    "internalType": "bool",
                    "name": "",
                    "type": "bool"
                }
            ],
            "stateMutability": "view",
            "type": "function"
        },
        {
            "inputs": [],
            "name": "name",
            "outputs": [
                {
                    "internalType": "string",
                    "name": "",
                    "type": "string"
                }
            ],
            "stateMutability": "view",
            "type": "function"
        },
        {
            "inputs": [
                {
                    "internalType": "uint256",
                    "name": "tokenId",
                    "type": "uint256"
                }
            ],
            "name": "ownerOf",
            "outputs": [
                {
                    "internalType": "address",
                    "name": "",
                    "type": "address"
                }
            ],
            "stateMutability": "view",
            "type": "function"
        },
        {
            "inputs": [
                {
                    "internalType": "address",
                    "name": "from",
                    "type": "address"
                },
                {
                    "internalType": "address",
                    "name": "to",
                    "type": "address"
                },
                {
                    "internalType": "uint256",
                    "name": "tokenId",
                    "type": "uint256"
                }
            ],
            "name": "safeTransferFrom",
            "outputs": [],
            "stateMutability": "nonpayable",
            "type": "function"
        },
        {
            "inputs": [
                {
                    "internalType": "address",
                    "name": "from",
                    "type": "address"
                },
                {
                    "internalType": "address",
                    "name": "to",
                    "type": "address"
                },
                {
                    "internalType": "uint256",
                    "name": "tokenId",
                    "type": "uint256"
                },
                {
                    "internalType": "bytes",
                    "name": "_data",
                    "type": "bytes"
                }
            ],
            "name": "safeTransferFrom",
            "outputs": [],
            "stateMutability": "nonpayable",
            "type": "function"
        },
        {
            "inputs": [
                {
                    "internalType": "address",
                    "name": "operator",
                    "type": "address"
                },
                {
                    "internalType": "bool",
                    "name": "approved",
                    "type": "bool"
                }
            ],
            "name": "setApprovalForAll",
            "outputs": [],
            "stateMutability": "nonpayable",
            "type": "function"
        },
        {
            "inputs": [
                {
                    "internalType": "bytes4",
                    "name": "interfaceId",
                    "type": "bytes4"
                }
            ],
            "name": "supportsInterface",
            "outputs": [
                {
                    "internalType": "bool",
                    "name": "",
                    "type": "bool"
                }
            ],
            "stateMutability": "view",
            "type": "function"
        },
        {
            "inputs": [],
            "name": "symbol",
            "outputs": [
                {
                    "internalType": "string",
                    "name": "",
                    "type": "string"
                }
            ],
            "stateMutability": "view",
            "type": "function"
        },
        {
            "inputs": [
                {
                    "internalType": "uint256",
                    "name": "tokenId",
                    "type": "uint256"
                }
            ],
            "name": "tokenURI",
            "outputs": [
                {
                    "internalType": "string",
                    "name": "",
                    "type": "string"
                }
            ],
            "stateMutability": "view",
            "type": "function"
        },
        {
            "inputs": [
                {
                    "internalType": "address",
                    "name": "from",
                    "type": "address"
                },
                {
                    "internalType": "address",
                    "name": "to",
                    "type": "address"
                },
                {
                    "internalType": "uint256",
                    "name": "tokenId",
                    "type": "uint256"
                }
            ],
            "name": "transferFrom",
            "outputs": [],
            "stateMutability": "nonpayable",
            "type": "function"
        }
    ],
    "bytecode": "60806040523480156200001157600080fd5b506040516200197438038062001974833981016040819052620000349162000168565b604080518082018252600b81526a4861736861204865726f6560a81b602080830191825283518085019094526003845262090a6960eb1b9084015281519192916200008291600091620000c2565b50805162000098906001906020840190620000c2565b5050600880546001600160a01b0319166001600160a01b03939093169290921790915550620001d7565b828054620000d0906200019a565b90600052602060002090601f016020900481019282620000f457600085556200013f565b82601f106200010f57805160ff19168380011785556200013f565b828001600101855582156200013f579182015b828111156200013f57825182559160200191906001019062000122565b506200014d92915062000151565b5090565b5b808211156200014d576000815560010162000152565b6000602082840312156200017b57600080fd5b81516001600160a01b03811681146200019357600080fd5b9392505050565b600181811c90821680620001af57607f821691505b60208210811415620001d157634e487b7160e01b600052602260045260246000fd5b50919050565b61178d80620001e76000396000f3fe608060405234801561001057600080fd5b50600436106101165760003560e01c80635b7a75d8116100a2578063a22cb46511610071578063a22cb46514610246578063aced6c3c14610259578063b88d4fde1461026c578063c87b56dd1461027f578063e985e9c51461029257600080fd5b80635b7a75d8146102055780636352211e1461021857806370a082311461022b57806395d89b411461023e57600080fd5b806323b872dd116100e957806323b872dd1461019857806342842e0e146101ab57806345576f94146101be57806349294e66146101df5780634ffcee3d146101f257600080fd5b806301ffc9a71461011b57806306fdde0314610143578063081812fc14610158578063095ea7b314610183575b600080fd5b61012e61012936600461123e565b6102ce565b60405190151581526020015b60405180910390f35b61014b610320565b60405161013a91906112b3565b61016b6101663660046112c6565b6103b2565b6040516001600160a01b03909116815260200161013a565b6101966101913660046112fb565b61043f565b005b6101966101a6366004611325565b610555565b6101966101b9366004611325565b610586565b6101d16101cc3660046113ed565b6105a1565b60405190815260200161013a565b61012e6101ed3660046112c6565b6105e9565b6101d1610200366004611436565b6105fc565b61014b6102133660046112c6565b610608565b61016b6102263660046112c6565b610615565b6101d1610239366004611436565b61068c565b61014b610713565b610196610254366004611451565b610722565b61016b6102673660046112c6565b610731565b61019661027a36600461148d565b61073d565b61014b61028d3660046112c6565b610775565b61012e6102a0366004611509565b6001600160a01b03918216600090815260056020908152604080832093909416825291909152205460ff1690565b60006001600160e01b031982166380ac58cd60e01b14806102ff57506001600160e01b03198216635b5e139f60e01b145b8061031a57506301ffc9a760e01b6001600160e01b03198316145b92915050565b60606000805461032f9061153c565b80601f016020809104026020016040519081016040528092919081815260200182805461035b9061153c565b80156103a85780601f1061037d576101008083540402835291602001916103a8565b820191906000526020600020905b81548152906001019060200180831161038b57829003601f168201915b5050505050905090565b60006103bd826108ec565b6104235760405162461bcd60e51b815260206004820152602c60248201527f4552433732313a20617070726f76656420717565727920666f72206e6f6e657860448201526b34b9ba32b73a103a37b5b2b760a11b60648201526084015b60405180910390fd5b506000908152600460205260409020546001600160a01b031690565b600061044a82610615565b9050806001600160a01b0316836001600160a01b031614156104b85760405162461bcd60e51b815260206004820152602160248201527f4552433732313a20617070726f76616c20746f2063757272656e74206f776e656044820152603960f91b606482015260840161041a565b336001600160a01b03821614806104d457506104d481336102a0565b6105465760405162461bcd60e51b815260206004820152603860248201527f4552433732313a20617070726f76652063616c6c6572206973206e6f74206f7760448201527f6e6572206e6f7220617070726f76656420666f7220616c6c0000000000000000606482015260840161041a565b6105508383610909565b505050565b61055f3382610977565b61057b5760405162461bcd60e51b815260040161041a90611577565b610550838383610a5d565b6105508383836040518060200160405280600081525061073d565b60006105b1600780546001019055565b60006105bc60075490565b90506105c83382610bf9565b6105d28184610d2c565b60085461031a906001600160a01b03166001610722565b6000806105f5836108ec565b9392505050565b6000806105f58361068c565b606060006105f583610775565b6000818152600260205260408120546001600160a01b03168061031a5760405162461bcd60e51b815260206004820152602960248201527f4552433732313a206f776e657220717565727920666f72206e6f6e657869737460448201526832b73a103a37b5b2b760b91b606482015260840161041a565b60006001600160a01b0382166106f75760405162461bcd60e51b815260206004820152602a60248201527f4552433732313a2062616c616e636520717565727920666f7220746865207a65604482015269726f206164647265737360b01b606482015260840161041a565b506001600160a01b031660009081526003602052604090205490565b60606001805461032f9061153c565b61072d338383610db7565b5050565b6000806105f583610615565b6107473383610977565b6107635760405162461bcd60e51b815260040161041a90611577565b61076f84848484610e86565b50505050565b6060610780826108ec565b6107e65760405162461bcd60e51b815260206004820152603160248201527f45524337323155524953746f726167653a2055524920717565727920666f72206044820152703737b732bc34b9ba32b73a103a37b5b2b760791b606482015260840161041a565b600082815260066020526040812080546107ff9061153c565b80601f016020809104026020016040519081016040528092919081815260200182805461082b9061153c565b80156108785780601f1061084d57610100808354040283529160200191610878565b820191906000526020600020905b81548152906001019060200180831161085b57829003601f168201915b50505050509050600061089660408051602081019091526000815290565b90508051600014156108a9575092915050565b8151156108db5780826040516020016108c39291906115c8565b60405160208183030381529060405292505050919050565b6108e484610eb9565b949350505050565b6000908152600260205260409020546001600160a01b0316151590565b600081815260046020526040902080546001600160a01b0319166001600160a01b038416908117909155819061093e82610615565b6001600160a01b03167f8c5be1e5ebec7d5bd14f71427d1e84f3dd0314c0f7b2291e5b200ac8c7c3b92560405160405180910390a45050565b6000610982826108ec565b6109e35760405162461bcd60e51b815260206004820152602c60248201527f4552433732313a206f70657261746f7220717565727920666f72206e6f6e657860448201526b34b9ba32b73a103a37b5b2b760a11b606482015260840161041a565b60006109ee83610615565b9050806001600160a01b0316846001600160a01b03161480610a295750836001600160a01b0316610a1e846103b2565b6001600160a01b0316145b806108e457506001600160a01b0380821660009081526005602090815260408083209388168352929052205460ff166108e4565b826001600160a01b0316610a7082610615565b6001600160a01b031614610ad45760405162461bcd60e51b815260206004820152602560248201527f4552433732313a207472616e736665722066726f6d20696e636f72726563742060448201526437bbb732b960d91b606482015260840161041a565b6001600160a01b038216610b365760405162461bcd60e51b8152602060048201526024808201527f4552433732313a207472616e7366657220746f20746865207a65726f206164646044820152637265737360e01b606482015260840161041a565b610b41600082610909565b6001600160a01b0383166000908152600360205260408120805460019290610b6a90849061160d565b90915550506001600160a01b0382166000908152600360205260408120805460019290610b98908490611624565b909155505060008181526002602052604080822080546001600160a01b0319166001600160a01b0386811691821790925591518493918716917fddf252ad1be2c89b69c2b068fc378daa952ba7f163c4a11628f55a4df523b3ef91a4505050565b6001600160a01b038216610c4f5760405162461bcd60e51b815260206004820181905260248201527f4552433732313a206d696e7420746f20746865207a65726f2061646472657373604482015260640161041a565b610c58816108ec565b15610ca55760405162461bcd60e51b815260206004820152601c60248201527f4552433732313a20746f6b656e20616c7265616479206d696e74656400000000604482015260640161041a565b6001600160a01b0382166000908152600360205260408120805460019290610cce908490611624565b909155505060008181526002602052604080822080546001600160a01b0319166001600160a01b03861690811790915590518392907fddf252ad1be2c89b69c2b068fc378daa952ba7f163c4a11628f55a4df523b3ef908290a45050565b610d35826108ec565b610d985760405162461bcd60e51b815260206004820152602e60248201527f45524337323155524953746f726167653a2055524920736574206f66206e6f6e60448201526d32bc34b9ba32b73a103a37b5b2b760911b606482015260840161041a565b600082815260066020908152604090912082516105509284019061118c565b816001600160a01b0316836001600160a01b03161415610e195760405162461bcd60e51b815260206004820152601960248201527f4552433732313a20617070726f766520746f2063616c6c657200000000000000604482015260640161041a565b6001600160a01b03838116600081815260056020908152604080832094871680845294825291829020805460ff191686151590811790915591519182527f17307eab39ab6107e8899845ad3d59bd9653f200f220920489ca2b5937696c31910160405180910390a3505050565b610e91848484610a5d565b610e9d84848484610f90565b61076f5760405162461bcd60e51b815260040161041a9061163c565b6060610ec4826108ec565b610f285760405162461bcd60e51b815260206004820152602f60248201527f4552433732314d657461646174613a2055524920717565727920666f72206e6f60448201526e3732bc34b9ba32b73a103a37b5b2b760891b606482015260840161041a565b6000610f3f60408051602081019091526000815290565b90506000815111610f5f57604051806020016040528060008152506105f5565b80610f698461108e565b604051602001610f7a9291906115c8565b6040516020818303038152906040529392505050565b60006001600160a01b0384163b1561108357604051630a85bd0160e11b81526001600160a01b0385169063150b7a0290610fd490339089908890889060040161168e565b6020604051808303816000875af192505050801561100f575060408051601f3d908101601f1916820190925261100c918101906116cb565b60015b611069573d80801561103d576040519150601f19603f3d011682016040523d82523d6000602084013e611042565b606091505b5080516110615760405162461bcd60e51b815260040161041a9061163c565b805181602001fd5b6001600160e01b031916630a85bd0160e11b1490506108e4565b506001949350505050565b6060816110b25750506040805180820190915260018152600360fc1b602082015290565b8160005b81156110dc57806110c6816116e8565b91506110d59050600a83611719565b91506110b6565b60008167ffffffffffffffff8111156110f7576110f7611361565b6040519080825280601f01601f191660200182016040528015611121576020820181803683370190505b5090505b84156108e45761113660018361160d565b9150611143600a8661172d565b61114e906030611624565b60f81b81838151811061116357611163611741565b60200101906001600160f81b031916908160001a905350611185600a86611719565b9450611125565b8280546111989061153c565b90600052602060002090601f0160209004810192826111ba5760008555611200565b82601f106111d357805160ff1916838001178555611200565b82800160010185558215611200579182015b828111156112005782518255916020019190600101906111e5565b5061120c929150611210565b5090565b5b8082111561120c5760008155600101611211565b6001600160e01b03198116811461123b57600080fd5b50565b60006020828403121561125057600080fd5b81356105f581611225565b60005b8381101561127657818101518382015260200161125e565b8381111561076f5750506000910152565b6000815180845261129f81602086016020860161125b565b601f01601f19169290920160200192915050565b6020815260006105f56020830184611287565b6000602082840312156112d857600080fd5b5035919050565b80356001600160a01b03811681146112f657600080fd5b919050565b6000806040838503121561130e57600080fd5b611317836112df565b946020939093013593505050565b60008060006060848603121561133a57600080fd5b611343846112df565b9250611351602085016112df565b9150604084013590509250925092565b634e487b7160e01b600052604160045260246000fd5b600067ffffffffffffffff8084111561139257611392611361565b604051601f8501601f19908116603f011681019082821181831017156113ba576113ba611361565b816040528093508581528686860111156113d357600080fd5b858560208301376000602087830101525050509392505050565b6000602082840312156113ff57600080fd5b813567ffffffffffffffff81111561141657600080fd5b8201601f8101841361142757600080fd5b6108e484823560208401611377565b60006020828403121561144857600080fd5b6105f5826112df565b6000806040838503121561146457600080fd5b61146d836112df565b91506020830135801515811461148257600080fd5b809150509250929050565b600080600080608085870312156114a357600080fd5b6114ac856112df565b93506114ba602086016112df565b925060408501359150606085013567ffffffffffffffff8111156114dd57600080fd5b8501601f810187136114ee57600080fd5b6114fd87823560208401611377565b91505092959194509250565b6000806040838503121561151c57600080fd5b611525836112df565b9150611533602084016112df565b90509250929050565b600181811c9082168061155057607f821691505b6020821081141561157157634e487b7160e01b600052602260045260246000fd5b50919050565b60208082526031908201527f4552433732313a207472616e736665722063616c6c6572206973206e6f74206f6040820152701ddb995c881b9bdc88185c1c1c9bdd9959607a1b606082015260800190565b600083516115da81846020880161125b565b8351908301906115ee81836020880161125b565b01949350505050565b634e487b7160e01b600052601160045260246000fd5b60008282101561161f5761161f6115f7565b500390565b60008219821115611637576116376115f7565b500190565b60208082526032908201527f4552433732313a207472616e7366657220746f206e6f6e20455243373231526560408201527131b2b4bb32b91034b6b83632b6b2b73a32b960711b606082015260800190565b6001600160a01b03858116825284166020820152604081018390526080606082018190526000906116c190830184611287565b9695505050505050565b6000602082840312156116dd57600080fd5b81516105f581611225565b60006000198214156116fc576116fc6115f7565b5060010190565b634e487b7160e01b600052601260045260246000fd5b60008261172857611728611703565b500490565b60008261173c5761173c611703565b500690565b634e487b7160e01b600052603260045260246000fdfea264697066735822122023902e395cb4524991bce5b627e0a4dfafe23d80f647af33c46d86ac87b88b4e64736f6c634300080c0033",
    "sourcePath": "c:/Users/Typhon/BuildQuest Hasha TD/contracts/Hasha_Heroe_NFT.sol",
    "compiler": {
        "name": "solc",
        "version": "0.8.12+commit.f00d7308"
    },
    "functionHashes": {
        "approve(address,uint256)": "095ea7b3",
        "balanceOf(address)": "70a08231",
        "createToken(string)": "45576f94",
        "getApproved(uint256)": "081812fc",
        "getHeroeExists(uint256)": "49294e66",
        "getHeroeMetaData(uint256)": "5b7a75d8",
        "getHeroeOwner(uint256)": "aced6c3c",
        "getTotalNumberOfHeroesOwnedByAnAddress(address)": "4ffcee3d",
        "isApprovedForAll(address,address)": "e985e9c5",
        "name()": "06fdde03",
        "ownerOf(uint256)": "6352211e",
        "safeTransferFrom(address,address,uint256)": "42842e0e",
        "safeTransferFrom(address,address,uint256,bytes)": "b88d4fde",
        "setApprovalForAll(address,bool)": "a22cb465",
        "supportsInterface(bytes4)": "01ffc9a7",
        "symbol()": "95d89b41",
        "tokenURI(uint256)": "c87b56dd",
        "transferFrom(address,address,uint256)": "23b872dd"
    },
    "gasEstimates": {
        "creation": {
            "codeDepositCost": "1205800",
            "executionCost": "infinite",
            "totalCost": "infinite"
        },
        "external": {
            "approve(address,uint256)": "infinite",
            "balanceOf(address)": "2656",
            "createToken(string)": "infinite",
            "getApproved(uint256)": "4799",
            "getHeroeExists(uint256)": "2603",
            "getHeroeMetaData(uint256)": "infinite",
            "getHeroeOwner(uint256)": "2624",
            "getTotalNumberOfHeroesOwnedByAnAddress(address)": "infinite",
            "isApprovedForAll(address,address)": "infinite",
            "name()": "infinite",
            "ownerOf(uint256)": "2601",
            "safeTransferFrom(address,address,uint256)": "infinite",
            "safeTransferFrom(address,address,uint256,bytes)": "infinite",
            "setApprovalForAll(address,bool)": "26708",
            "supportsInterface(bytes4)": "534",
            "symbol()": "infinite",
            "tokenURI(uint256)": "infinite",
            "transferFrom(address,address,uint256)": "infinite"
        }
    }
}