{
    "contractName": "HashaGame",
    "abi": [
        {
            "anonymous": false,
            "inputs": [
                {
                    "indexed": false,
                    "internalType": "uint256",
                    "name": "profileId",
                    "type": "uint256"
                },
                {
                    "indexed": false,
                    "internalType": "address",
                    "name": "owner",
                    "type": "address"
                },
                {
                    "indexed": false,
                    "internalType": "string",
                    "name": "name",
                    "type": "string"
                },
                {
                    "indexed": false,
                    "internalType": "uint64",
                    "name": "created",
                    "type": "uint64"
                },
                {
                    "indexed": false,
                    "internalType": "uint8",
                    "name": "picId",
                    "type": "uint8"
                }
            ],
            "name": "PlayerCreated",
            "type": "event"
        },
        {
            "anonymous": false,
            "inputs": [
                {
                    "indexed": true,
                    "internalType": "bytes32",
                    "name": "role",
                    "type": "bytes32"
                },
                {
                    "indexed": true,
                    "internalType": "bytes32",
                    "name": "previousAdminRole",
                    "type": "bytes32"
                },
                {
                    "indexed": true,
                    "internalType": "bytes32",
                    "name": "newAdminRole",
                    "type": "bytes32"
                }
            ],
            "name": "RoleAdminChanged",
            "type": "event"
        },
        {
            "anonymous": false,
            "inputs": [
                {
                    "indexed": true,
                    "internalType": "bytes32",
                    "name": "role",
                    "type": "bytes32"
                },
                {
                    "indexed": true,
                    "internalType": "address",
                    "name": "account",
                    "type": "address"
                },
                {
                    "indexed": true,
                    "internalType": "address",
                    "name": "sender",
                    "type": "address"
                }
            ],
            "name": "RoleGranted",
            "type": "event"
        },
        {
            "anonymous": false,
            "inputs": [
                {
                    "indexed": true,
                    "internalType": "bytes32",
                    "name": "role",
                    "type": "bytes32"
                },
                {
                    "indexed": true,
                    "internalType": "address",
                    "name": "account",
                    "type": "address"
                },
                {
                    "indexed": true,
                    "internalType": "address",
                    "name": "sender",
                    "type": "address"
                }
            ],
            "name": "RoleRevoked",
            "type": "event"
        },
        {
            "inputs": [],
            "name": "DEFAULT_ADMIN_ROLE",
            "outputs": [
                {
                    "internalType": "bytes32",
                    "name": "",
                    "type": "bytes32"
                }
            ],
            "stateMutability": "view",
            "type": "function"
        },
        {
            "inputs": [],
            "name": "MODERATOR_ROLE",
            "outputs": [
                {
                    "internalType": "bytes32",
                    "name": "",
                    "type": "bytes32"
                }
            ],
            "stateMutability": "view",
            "type": "function"
        },
        {
            "inputs": [
                {
                    "internalType": "address",
                    "name": "",
                    "type": "address"
                }
            ],
            "name": "addressToIndex",
            "outputs": [
                {
                    "internalType": "uint256",
                    "name": "",
                    "type": "uint256"
                }
            ],
            "stateMutability": "view",
            "type": "function"
        },
        {
            "inputs": [
                {
                    "internalType": "uint256",
                    "name": "",
                    "type": "uint256"
                }
            ],
            "name": "addresses",
            "outputs": [
                {
                    "internalType": "address",
                    "name": "",
                    "type": "address"
                }
            ],
            "stateMutability": "view",
            "type": "function"
        },
        {
            "inputs": [
                {
                    "internalType": "string",
                    "name": "_name",
                    "type": "string"
                },
                {
                    "internalType": "uint8",
                    "name": "_picId",
                    "type": "uint8"
                }
            ],
            "name": "createPlayer",
            "outputs": [
                {
                    "internalType": "bool",
                    "name": "success",
                    "type": "bool"
                }
            ],
            "stateMutability": "nonpayable",
            "type": "function"
        },
        {
            "inputs": [
                {
                    "internalType": "string",
                    "name": "name",
                    "type": "string"
                }
            ],
            "name": "getAddressByName",
            "outputs": [
                {
                    "internalType": "address",
                    "name": "playerAddress",
                    "type": "address"
                }
            ],
            "stateMutability": "view",
            "type": "function"
        },
        {
            "inputs": [
                {
                    "internalType": "string",
                    "name": "name",
                    "type": "string"
                }
            ],
            "name": "getPlayerByName",
            "outputs": [
                {
                    "internalType": "uint256",
                    "name": "_id",
                    "type": "uint256"
                },
                {
                    "internalType": "address",
                    "name": "_owner",
                    "type": "address"
                },
                {
                    "internalType": "string",
                    "name": "_name",
                    "type": "string"
                },
                {
                    "internalType": "uint64",
                    "name": "_created",
                    "type": "uint64"
                },
                {
                    "internalType": "uint8",
                    "name": "_picId",
                    "type": "uint8"
                }
            ],
            "stateMutability": "view",
            "type": "function"
        },
        {
            "inputs": [],
            "name": "getPlayerCount",
            "outputs": [
                {
                    "internalType": "uint256",
                    "name": "count",
                    "type": "uint256"
                }
            ],
            "stateMutability": "view",
            "type": "function"
        },
        {
            "inputs": [
                {
                    "internalType": "bytes32",
                    "name": "role",
                    "type": "bytes32"
                }
            ],
            "name": "getRoleAdmin",
            "outputs": [
                {
                    "internalType": "bytes32",
                    "name": "",
                    "type": "bytes32"
                }
            ],
            "stateMutability": "view",
            "type": "function"
        },
        {
            "inputs": [
                {
                    "internalType": "bytes32",
                    "name": "role",
                    "type": "bytes32"
                },
                {
                    "internalType": "address",
                    "name": "account",
                    "type": "address"
                }
            ],
            "name": "grantRole",
            "outputs": [],
            "stateMutability": "nonpayable",
            "type": "function"
        },
        {
            "inputs": [
                {
                    "internalType": "bytes32",
                    "name": "role",
                    "type": "bytes32"
                },
                {
                    "internalType": "address",
                    "name": "account",
                    "type": "address"
                }
            ],
            "name": "hasRole",
            "outputs": [
                {
                    "internalType": "bool",
                    "name": "",
                    "type": "bool"
                }
            ],
            "stateMutability": "view",
            "type": "function"
        },
        {
            "inputs": [],
            "name": "initialize",
            "outputs": [],
            "stateMutability": "nonpayable",
            "type": "function"
        },
        {
            "inputs": [
                {
                    "internalType": "string",
                    "name": "name",
                    "type": "string"
                }
            ],
            "name": "nameTaken",
            "outputs": [
                {
                    "internalType": "bool",
                    "name": "taken",
                    "type": "bool"
                }
            ],
            "stateMutability": "view",
            "type": "function"
        },
        {
            "inputs": [
                {
                    "internalType": "string",
                    "name": "",
                    "type": "string"
                }
            ],
            "name": "nameToIndex",
            "outputs": [
                {
                    "internalType": "uint256",
                    "name": "",
                    "type": "uint256"
                }
            ],
            "stateMutability": "view",
            "type": "function"
        },
        {
            "inputs": [
                {
                    "internalType": "address",
                    "name": "playerAddress",
                    "type": "address"
                }
            ],
            "name": "playerExists",
            "outputs": [
                {
                    "internalType": "bool",
                    "name": "exist",
                    "type": "bool"
                }
            ],
            "stateMutability": "view",
            "type": "function"
        },
        {
            "inputs": [
                {
                    "internalType": "uint256",
                    "name": "",
                    "type": "uint256"
                }
            ],
            "name": "players",
            "outputs": [
                {
                    "internalType": "uint256",
                    "name": "id",
                    "type": "uint256"
                },
                {
                    "internalType": "address",
                    "name": "owner",
                    "type": "address"
                },
                {
                    "internalType": "string",
                    "name": "name",
                    "type": "string"
                },
                {
                    "internalType": "uint64",
                    "name": "created",
                    "type": "uint64"
                },
                {
                    "internalType": "uint8",
                    "name": "picId",
                    "type": "uint8"
                },
                {
                    "internalType": "bool",
                    "name": "isValue",
                    "type": "bool"
                }
            ],
            "stateMutability": "view",
            "type": "function"
        },
        {
            "inputs": [
                {
                    "internalType": "bytes32",
                    "name": "role",
                    "type": "bytes32"
                },
                {
                    "internalType": "address",
                    "name": "account",
                    "type": "address"
                }
            ],
            "name": "renounceRole",
            "outputs": [],
            "stateMutability": "nonpayable",
            "type": "function"
        },
        {
            "inputs": [
                {
                    "internalType": "bytes32",
                    "name": "role",
                    "type": "bytes32"
                },
                {
                    "internalType": "address",
                    "name": "account",
                    "type": "address"
                }
            ],
            "name": "revokeRole",
            "outputs": [],
            "stateMutability": "nonpayable",
            "type": "function"
        },
        {
            "inputs": [
                {
                    "internalType": "bytes4",
                    "name": "interfaceId",
                    "type": "bytes4"
                }
            ],
            "name": "supportsInterface",
            "outputs": [
                {
                    "internalType": "bool",
                    "name": "",
                    "type": "bool"
                }
            ],
            "stateMutability": "view",
            "type": "function"
        }
    ],
    "bytecode": "608060405234801561001057600080fd5b50611618806100206000396000f3fe608060405234801561001057600080fd5b50600436106101215760003560e01c80639a65ddec116100ad578063c5047eb411610071578063c5047eb414610299578063d547741f146102ac578063edf26d9b146102bf578063f667e0aa146102d2578063f71d96cb146102f257600080fd5b80639a65ddec14610220578063a217fddf1461024b578063bbe5230014610253578063c148162614610266578063c2e522061461029157600080fd5b806336568abe116100f457806336568abe146101b8578063797669c9146101cb5780638129fc1c146101f257806391d14854146101fa57806391fc437e1461020d57600080fd5b806301ffc9a714610126578063192e571d1461014e578063248a9ca3146101725780632f2ff15d146101a3575b600080fd5b6101396101343660046111ae565b610317565b60405190151581526020015b60405180910390f35b61016161015c36600461127b565b61034e565b604051610145959493929190611314565b610195610180366004611363565b60009081526065602052604090206001015490565b604051908152602001610145565b6101b66101b1366004611393565b610510565b005b6101b66101c6366004611393565b61053b565b6101957f71f3d55856e4058ed06ee057d79ada615f65cdf5f9ee88181b914225088f834f81565b6101b66105b9565b610139610208366004611393565b61086c565b61013961021b36600461127b565b610897565b61023361022e36600461127b565b6108c1565b6040516001600160a01b039091168152602001610145565b610195600081565b6101396102613660046113bf565b610955565b61019561027436600461127b565b805160208183018101805160998252928201919093012091525481565b609a54610195565b6101396102a73660046113da565b61099a565b6101b66102ba366004611393565b610c7f565b6102336102cd366004611363565b610ca5565b6101956102e03660046113bf565b60986020526000908152604090205481565b610305610300366004611363565b610ccf565b60405161014596959493929190611432565b60006001600160e01b03198216637965db0b60e01b148061034857506301ffc9a760e01b6001600160e01b03198316145b92915050565b600080606060008061035f86610897565b6103a15760405162461bcd60e51b815260206004820152600e60248201526d1b985b59481b9bdd08199bdd5b9960921b60448201526064015b60405180910390fd5b6000609b60006099896040516103b79190611489565b90815260200160405180910390205481526020019081526020016000206040518060c0016040529081600082015481526020016001820160009054906101000a90046001600160a01b03166001600160a01b03166001600160a01b03168152602001600282018054610428906114a5565b80601f0160208091040260200160405190810160405280929190818152602001828054610454906114a5565b80156104a15780601f10610476576101008083540402835291602001916104a1565b820191906000526020600020905b81548152906001019060200180831161048457829003601f168201915b50505091835250506003919091015467ffffffffffffffff811660208084019190915260ff600160401b83048116604080860191909152600160481b9093041615156060938401528351908401519184015192840151608090940151909b919a50919850919650945092505050565b60008281526065602052604090206001015461052c8133610daa565b6105368383610e0e565b505050565b6001600160a01b03811633146105ab5760405162461bcd60e51b815260206004820152602f60248201527f416363657373436f6e74726f6c3a2063616e206f6e6c792072656e6f756e636560448201526e103937b632b9903337b91039b2b63360891b6064820152608401610398565b6105b58282610e94565b5050565b600054610100900460ff166105d45760005460ff16156105d8565b303b155b61063b5760405162461bcd60e51b815260206004820152602e60248201527f496e697469616c697a61626c653a20636f6e747261637420697320616c72656160448201526d191e481a5b9a5d1a585b1a5e995960921b6064820152608401610398565b600054610100900460ff1615801561065d576000805461ffff19166101011790555b610665610efb565b610670600033610f68565b6097805462ffffff1916620f1003179055609a8054600181019091557f44da158ba27f9252712a74ff6a55c5d531f69609f1f6e7f17c4443a8e2089be40180546001600160a01b0319169055600080805260986020527fddaeee8e61001dbcfaf4f92c6943552c392a86665d734d3c1905d7b3c23b1b1e8190556040516339b2b63360e11b815260999060040190815260408051602092819003830181209390935560c083018152600080845282840181815282518084018452600481526339b2b63360e11b818601529285019283524267ffffffffffffffff16606086015260808501829052600160a0860152908052609b835283517f10afac9233b4ccc54d6404ffc1cf3b47515a2b8edbf675d15eddce05a027dcbd90815590517f10afac9233b4ccc54d6404ffc1cf3b47515a2b8edbf675d15eddce05a027dcbe80546001600160a01b0319166001600160a01b039092169190911790559051805184936107ff927f10afac9233b4ccc54d6404ffc1cf3b47515a2b8edbf675d15eddce05a027dcbf92910190611115565b50606082015160039091018054608084015160a0909401511515600160481b0260ff60481b1960ff909516600160401b0268ffffffffffffffffff1990921667ffffffffffffffff909416939093171792909216179055508015610869576000805461ff00191690555b50565b60009182526065602090815260408084206001600160a01b0393909316845291905290205460ff1690565b6000806099836040516108aa9190611489565b908152602001604051809103902054119050919050565b60006108cc82610897565b6109095760405162461bcd60e51b815260206004820152600e60248201526d1b985b59481b9bdd08199bdd5b9960921b6044820152606401610398565b609a60998360405161091b9190611489565b9081526020016040518091039020548154811061093a5761093a6114e0565b6000918252602090912001546001600160a01b031692915050565b6001600160a01b0381166000908152609860209081526040808320548352609b909152812060030154600160481b900460ff161561099557506001919050565b919050565b60006109a533610955565b156109ea5760405162461bcd60e51b8152602060048201526015602482015274706c6179657220616c72656164792065786973747360581b6044820152606401610398565b6109f383610897565b15610a355760405162461bcd60e51b81526020600482015260126024820152713730b6b29030b63932b0b23c903a30b5b2b760711b6044820152606401610398565b609754835160ff9091161115610a7e5760405162461bcd60e51b815260206004820152600e60248201526d1b985b59481d1bdbc81cda1bdc9d60921b6044820152606401610398565b609754835161010090910460ff161015610aca5760405162461bcd60e51b815260206004820152600d60248201526c6e616d6520746f6f206c6f6e6760981b6044820152606401610398565b609a8054600181019091557f44da158ba27f9252712a74ff6a55c5d531f69609f1f6e7f17c4443a8e2089be4810180546001600160a01b0319163390811790915560009081526098602052604090819020829055518190609990610b2f908790611489565b90815260408051602092819003830181209390935560c083018152838352338284019081528382018881524267ffffffffffffffff16606086015260ff88166080860152600160a086018190526000878152609b86529390932085518155915192820180546001600160a01b0319166001600160a01b0390941693909317909255905180518493610bc7926002850192910190611115565b506060828101516003909201805460808086015160a0909601511515600160481b0260ff60481b1960ff909716600160401b0268ffffffffffffffffff1990931667ffffffffffffffff909616959095179190911794909416929092179091556020830151604080850151928501519385015190517f15b8901b67bf1c64adbaf421ea6cc74d53f53193968778c0e11e58874c2d9c4f94610c6c948894939092611314565b60405180910390a1506001949350505050565b600082815260656020526040902060010154610c9b8133610daa565b6105368383610e94565b609a8181548110610cb557600080fd5b6000918252602090912001546001600160a01b0316905081565b609b6020526000908152604090208054600182015460028301805492936001600160a01b0390921692610d01906114a5565b80601f0160208091040260200160405190810160405280929190818152602001828054610d2d906114a5565b8015610d7a5780601f10610d4f57610100808354040283529160200191610d7a565b820191906000526020600020905b815481529060010190602001808311610d5d57829003601f168201915b5050506003909301549192505067ffffffffffffffff81169060ff600160401b8204811691600160481b90041686565b610db4828261086c565b6105b557610dcc816001600160a01b03166014610f72565b610dd7836020610f72565b604051602001610de89291906114f6565b60408051601f198184030181529082905262461bcd60e51b82526103989160040161156b565b610e18828261086c565b6105b55760008281526065602090815260408083206001600160a01b03851684529091529020805460ff19166001179055610e503390565b6001600160a01b0316816001600160a01b0316837f2f8788117e7eff1d82e926ec794901d17c78024a50270940304540a733656f0d60405160405180910390a45050565b610e9e828261086c565b156105b55760008281526065602090815260408083206001600160a01b0385168085529252808320805460ff1916905551339285917ff6391f5c32d9c69d2a47ea670b442974b53935d1edc7fd64eb21e047a839171b9190a45050565b600054610100900460ff16610f665760405162461bcd60e51b815260206004820152602b60248201527f496e697469616c697a61626c653a20636f6e7472616374206973206e6f74206960448201526a6e697469616c697a696e6760a81b6064820152608401610398565b565b6105b58282610e0e565b60606000610f81836002611594565b610f8c9060026115b3565b67ffffffffffffffff811115610fa457610fa46111d8565b6040519080825280601f01601f191660200182016040528015610fce576020820181803683370190505b509050600360fc1b81600081518110610fe957610fe96114e0565b60200101906001600160f81b031916908160001a905350600f60fb1b81600181518110611018576110186114e0565b60200101906001600160f81b031916908160001a905350600061103c846002611594565b6110479060016115b3565b90505b60018111156110bf576f181899199a1a9b1b9c1cb0b131b232b360811b85600f166010811061107b5761107b6114e0565b1a60f81b828281518110611091576110916114e0565b60200101906001600160f81b031916908160001a90535060049490941c936110b8816115cb565b905061104a565b50831561110e5760405162461bcd60e51b815260206004820181905260248201527f537472696e67733a20686578206c656e67746820696e73756666696369656e746044820152606401610398565b9392505050565b828054611121906114a5565b90600052602060002090601f0160209004810192826111435760008555611189565b82601f1061115c57805160ff1916838001178555611189565b82800160010185558215611189579182015b8281111561118957825182559160200191906001019061116e565b50611195929150611199565b5090565b5b80821115611195576000815560010161119a565b6000602082840312156111c057600080fd5b81356001600160e01b03198116811461110e57600080fd5b634e487b7160e01b600052604160045260246000fd5b600082601f8301126111ff57600080fd5b813567ffffffffffffffff8082111561121a5761121a6111d8565b604051601f8301601f19908116603f01168101908282118183101715611242576112426111d8565b8160405283815286602085880101111561125b57600080fd5b836020870160208301376000602085830101528094505050505092915050565b60006020828403121561128d57600080fd5b813567ffffffffffffffff8111156112a457600080fd5b6112b0848285016111ee565b949350505050565b60005b838110156112d35781810151838201526020016112bb565b838111156112e2576000848401525b50505050565b600081518084526113008160208601602086016112b8565b601f01601f19169290920160200192915050565b8581526001600160a01b038516602082015260a06040820181905260009061133e908301866112e8565b905067ffffffffffffffff8416606083015260ff831660808301529695505050505050565b60006020828403121561137557600080fd5b5035919050565b80356001600160a01b038116811461099557600080fd5b600080604083850312156113a657600080fd5b823591506113b66020840161137c565b90509250929050565b6000602082840312156113d157600080fd5b61110e8261137c565b600080604083850312156113ed57600080fd5b823567ffffffffffffffff81111561140457600080fd5b611410858286016111ee565b925050602083013560ff8116811461142757600080fd5b809150509250929050565b8681526001600160a01b038616602082015260c06040820181905260009061145c908301876112e8565b67ffffffffffffffff9590951660608301525060ff929092166080830152151560a0909101529392505050565b6000825161149b8184602087016112b8565b9190910192915050565b600181811c908216806114b957607f821691505b602082108114156114da57634e487b7160e01b600052602260045260246000fd5b50919050565b634e487b7160e01b600052603260045260246000fd5b7f416363657373436f6e74726f6c3a206163636f756e742000000000000000000081526000835161152e8160178501602088016112b8565b7001034b99036b4b9b9b4b733903937b6329607d1b601791840191820152835161155f8160288401602088016112b8565b01602801949350505050565b60208152600061110e60208301846112e8565b634e487b7160e01b600052601160045260246000fd5b60008160001904831182151516156115ae576115ae61157e565b500290565b600082198211156115c6576115c661157e565b500190565b6000816115da576115da61157e565b50600019019056fea2646970667358221220cc726de6d500b57e7f8131175412e80a244cd4c027db9cac7b7dcd5dc95f021264736f6c634300080c0033",
    "sourcePath": "c:/Users/Typhon/BuildQuest Hasha TD/contracts/HashaGame.sol",
    "compiler": {
        "name": "solc",
        "version": "0.8.12+commit.f00d7308"
    },
    "functionHashes": {
        "DEFAULT_ADMIN_ROLE()": "a217fddf",
        "MODERATOR_ROLE()": "797669c9",
        "addressToIndex(address)": "f667e0aa",
        "addresses(uint256)": "edf26d9b",
        "createPlayer(string,uint8)": "c5047eb4",
        "getAddressByName(string)": "9a65ddec",
        "getPlayerByName(string)": "192e571d",
        "getPlayerCount()": "c2e52206",
        "getRoleAdmin(bytes32)": "248a9ca3",
        "grantRole(bytes32,address)": "2f2ff15d",
        "hasRole(bytes32,address)": "91d14854",
        "initialize()": "8129fc1c",
        "nameTaken(string)": "91fc437e",
        "nameToIndex(string)": "c1481626",
        "playerExists(address)": "bbe52300",
        "players(uint256)": "f71d96cb",
        "renounceRole(bytes32,address)": "36568abe",
        "revokeRole(bytes32,address)": "d547741f",
        "supportsInterface(bytes4)": "01ffc9a7"
    },
    "gasEstimates": {
        "creation": {
            "codeDepositCost": "1131200",
            "executionCost": "1174",
            "totalCost": "1132374"
        },
        "external": {
            "DEFAULT_ADMIN_ROLE()": "240",
            "MODERATOR_ROLE()": "240",
            "addressToIndex(address)": "2607",
            "addresses(uint256)": "4680",
            "createPlayer(string,uint8)": "infinite",
            "getAddressByName(string)": "infinite",
            "getPlayerByName(string)": "infinite",
            "getPlayerCount()": "2403",
            "getRoleAdmin(bytes32)": "2512",
            "grantRole(bytes32,address)": "infinite",
            "hasRole(bytes32,address)": "2743",
            "initialize()": "infinite",
            "nameTaken(string)": "infinite",
            "nameToIndex(string)": "infinite",
            "playerExists(address)": "infinite",
            "players(uint256)": "infinite",
            "renounceRole(bytes32,address)": "29024",
            "revokeRole(bytes32,address)": "infinite",
            "supportsInterface(bytes4)": "450"
        }
    }
}